S014000050726F6A6563745F6D6567612E7372656340
S113000071C0000086C0000084C0000082C00000EF
S113001080C000007EC000007CC000007AC00000E8
S113002078C0000076C0000074C0000072C00000F8
S113003070C000006EC000006CC000006AC0000008
S113004068C0000066C0000064C0000062C0000018
S113005060C000005EC000005CC000005AC0000028
S113006058C0000056C0000054C0000052C0000038
S113007050C000004EC000004CC000004AC0000048
S113008048C0000046C0000044C0000042C0000058
S113009040C000003EC000003CC000003AC0000068
S11300A038C0000036C0000034C0000032C0000078
S11300B030C000002EC000002CC000002AC0000088
S11300C028C0000026C0000024C0000022C0000098
S11300D020C000001EC000001CC000001AC00000A8
S11300E018C0000011241FBECFEFD1E2DEBFCDBF88
S11300F000E00CBF12E0A0E0B2E0E8E3F4E000E0CE
S11301000BBF02C007900D92A832B107D9F755D1A1
S113011091C176CF85B1806285B9000085B18F7DAC
S113012085B90895CF93C82F662331F0E2E0F1E05A
S113013080818064808305C0E2E0F1E080818F7B70
S1130140808385B18F7E85B98DB180628DB983B38B
S1130150806283BB8DB188608DB9E1E0F1E080817C
S113016088608083E2E0F1E08081877F80838EB1C4
S1130170877F8EB984B38F7D84BB8EB18F7D8EB91A
S1130180CC231CF4808188608083C6FF03C08EB1B9
S113019088608EB9C5FF03C084B3806284BBC4FF8A
S11301A003C08EB180628EB9B5DFE2E0F1E08081F8
S11301B0877F80838EB1877F8EB984B38F7D84BB24
S11301C08EB18F7D8EB9C3FF03C080818860808328
S11301D0C2FF03C08EB188608EB9C1FF03C084B36F
S11301E0806284BBC0FF03C08EB180628EB992DF8F
S11301F08EB180628EB984B3806284BB8EB1886014
S11302008EB9E2E0F1E0808188608083CF91089527
S1130210882331F0E2E0F1E080818064808305C0CE
S1130220E2E0F1E080818F7B808385B1806185B9D4
S11302308DB18F7D8DB983B38F7D83BB8DB1877F66
S11302408DB9E1E0F1E08081877F808385B18062B0
S113025085B90000659902C080E001C080E19599EC
S11302608062639980649091000193FD806895B1E8
S11302709F7D95B9000095B1906295B9000065998C
S1130280816095998260639984609091000193FDE7
S1130290886095B19F7D95B9089580E0B9DF882382
S11302A0E4F300C000C080E0B3CF0895CF93C82F1B
S11302B0F4DF60E08C2F36DFCF910895611103C025
S11302C08058F4CF08958054F1CF089581E0EECFA3
S11302D00895CF93C82FE1DFCA3041F4803410F47D
S11302E080E401C080E08058E1DF03C061E08C2F2E
S11302F019DFCF910895CF93DF93FC0102C0E9DFAA
S1130300FE01EF01219680818111F9CFDF91CF9118
S11303100895CF93C82FE1E0F1E080818064808369
S113032084B1806184B984B1806284B98DB1806202
S11303308DB983B3806283BB8DB188608DB98081B0
S1130340886080838FE99FE00197F1F700C0000087
S113035084B3806284BB8EB180628EB9DBDE81EEB1
S113036094E00197F1F700C00000D4DE95E19A957E
S1130370F1F70000CFDE85E18A95F1F700008EB138
S11303808F7D8EB9C7DE95E19A95F1F7000088E27A
S11303908DDF88E08BDF9ADF86E088DF8C2F86DFB5
S11303A0CF91089595B19E7F95B98EBD0DB407FE8A
S11303B0FDCF85B1816085B9089584B1876084B922
S11303C08CB580658CBD8CB581608CBDE1E0F1E0BD
S11303D080818F7E80838CE09CDF80E092E08BDFE5
S11303E08091000184FF13C084E1DCDF61E080E0E0
S11303F065DF6CDF8DE092E07EDF2FEF81EE94E02D
S1130400215080409040E1F700C00000E9CF83E133
S1130410C9DF61E080E052DF59DF8DE192E06BDFFC
S11304202FEF81EE94E0215080409040E1F700C02E
S10B04300000D6CFF894FFCFC1
S1130438416C61726D2073797374656D004D6F74CE
S1130448696F6E206465746563746564004E6F201B
S10B04586D6F74696F6E000002
S9030000FC
