S014000050726F6A6563745F6D6567612E7372656340
S1130000E9C0000006C1000004C1000002C10000F4
S113001000C10000FEC00000FCC00000FAC00000E7
S1130020F8C00000F6C00000F4C00000F2C00000F8
S1130030F0C00000EEC00000ECC00000EAC0000008
S1130040E8C00000E6C00000E4C00000E2C0000018
S1130050C7C20000DEC00000DCC00000DAC000003F
S1130060D8C00000D6C00000D4C00000D2C0000038
S1130070D0C00000CEC00000CCC00000CAC0000048
S1130080C8C00000C6C00000C4C00000C2C0000058
S1130090C0C00000BEC00000BCC00000BAC0000068
S11300A0B8C00000B6C00000B4C00000B2C0000078
S11300B0B0C00000AEC00000ACC00000AAC0000088
S11300C0A8C00000A6C00000A4C00000A2C0000098
S11300D0A0C000009EC000009CC000009AC00000A8
S11300E098C000007F018701870187018101870192
S11300F083018501870187018701870187018701C2
S113010087018701870187018701870187018701AB
S1130110870187018701870187018701870187019B
S1130120870187018701870187018701870187018B
S1130130870187018701870187018701870187017B
S1130140870187018701870187018701870187016B
S1130150870187018701870187018701870187015B
S11301608701870177018701870187017901870169
S11301707B017D0187018701870187018701870151
S1130180870187018701870187018701870187012B
S1130190870187018701870187018701870187011B
S11301A0870187016F018701870187017101870139
S11301B07301750187018701870187018701870121
S11301C08701870169018701870187018901870107
S11301D06B016D0111241FBECFEFD1E2DEBFCDBF95
S11301E000E00CBF12E0A0E0B2E0EAE1FAE000E0D7
S11301F00BBF02C007900D92A037B107D9F722E0D8
S1130200A0E7B2E001C01D92A437B207E1F75BD3C7
S113021002C4F6CE20E09FEE10C090930801E9EFEF
S1130220F0E03197F1F700C00000809106018F7073
S11302308F3029F4990F9F5F2F5F243070F3907FE4
S1130240890F089580EF8093070108958FE08093CC
S11302500801809106018F708F30C1F789EF90E01B
S11302600197F1F700C000008FE0809308018091AE
S113027006018F708F3051F708958FE08093080145
S1130280809106018F708F30C1F389EF90E0019760
S1130290F1F700C000008FE080930801809106010F
S11302A08F708F3051F30895D1DF89EF90E001977B
S11302B0F1F700C00000E1DFADDF90E0FC01E7579B
S11302C0F109E837F10518F58827EE58FF4F8F4FED
S11302D09AC38AE2089584E3089581E3089580E34C
S11302E0089588E3089585E3089582E3089583E2F9
S11302F0089589E3089586E3089583E3089584E4E3
S1130300089583E4089582E4089581E408958AE7D2
S1130310089587E3089585B1806285B9000085B1A9
S11303208F7D85B90895CF93C82F662331F0E2E01D
S1130330F1E080818064808305C0E2E0F1E08081A7
S11303408F7B808385B18F7E85B98DB180628DB9B5
S113035083B3806283BB8DB188608DB9E1E0F1E045
S1130360808188608083E2E0F1E08081877F808300
S11303708EB1877F8EB984B38F7D84BB8EB18F7D20
S11303808EB9CC231CF4808188608083C6FF03C0AF
S11303908EB188608EB9C5FF03C084B3806284BB0C
S11303A0C4FF03C08EB180628EB9B5DFE2E0F1E034
S11303B08081877F80838EB1877F8EB984B38F7D60
S11303C084BB8EB18F7D8EB9C3FF03C080818860EA
S11303D08083C2FF03C08EB188608EB9C1FF03C0A1
S11303E084B3806284BBC0FF03C08EB180628EB9C7
S11303F092DF8EB180628EB984B3806284BB8EB189
S113040088608EB9E2E0F1E0808188608083CF91DA
S11304100895882331F0E2E0F1E0808180648083F4
S113042005C0E2E0F1E080818F7B808385B180614B
S113043085B98DB18F7D8DB983B38F7D83BB8DB12C
S1130440877F8DB9E1E0F1E08081877F808385B18A
S1130450806285B90000659902C080E001C080E136
S113046095998062639980649091000193FD8068FE
S113047095B19F7D95B9000095B1906295B9000042
S11304806599816095998260639984609091000177
S113049093FD886095B19F7D95B9089580E0B9DF9B
S11304A08823E4F300C000C080E0B3CF0895CF9365
S11304B0C82FF4DF60E08C2F36DFCF9108956111EF
S11304C003C08058F4CF08958054F1CF089581E09B
S11304D0EECF0895CF93C82FE1DFCA3041F48034C2
S11304E010F480E401C080E08058E1DF03C061E0E3
S11304F08C2F19DFCF910895CF93DF93FC0102C0B5
S1130500E9DFFE01EF01219680818111F9CFDF91AE
S1130510CF910895CF93C82FE1E0F1E0808180640A
S1130520808384B1806184B984B1806284B98DB1DF
S113053080628DB983B3806283BB8DB188608DB9CD
S11305408081886080838FE99FE00197F1F700C084
S1130550000084B3806284BB8EB180628EB9DBDE1E
S113056081EE94E00197F1F700C00000D4DE95E13C
S11305709A95F1F70000CFDE85E18A95F1F7000046
S11305808EB18F7D8EB9C7DE95E19A95F1F70000A3
S113059088E28DDF88E08BDF9ADF86E088DF8C2FAE
S11305A086DFCF91089595B19E7F95B98EBD0DB428
S11305B007FEFDCF85B1816085B90895CF93DF93A0
S11305C0682F80E07CDFC0E0D0E004C085E092E0EA
S11305D093DF2196C031D105CCF3DF91CF910895FB
S11305E01F920F920FB60F9211240BB60F922F93F6
S11305F03F934F935F936F937F938F939F93AF93A7
S1130600BF93EF93FF9380917102909172020196D0
S113061090937202809371028091710290917202A0
S1130620059759F484E1BFDF1092720210927102AF
S1130630EFE6F0E080818E7F8083FF91EF91BF91A0
S1130640AF919F918F917F916F915F914F913F9166
S11306502F910F900BBE0F900FBE0F901F90189507
S11306608F929F92AF92BF92CF92DF92EF92FF92BE
S11306700F931F93CF93DF9300D01F921F92CDB798
S1130680DEB785E0E0E0F2E0DE01119601900D9224
S11306908A95E1F780E090E06894882485F868946E
S11306A0992495F86894AA24A5F86894BB24B5F80D
S11306B01CC0009721F4FC01E659FD4FB080813045
S11306C0910521F4FC01E659FD4FA080823091058B
S11306D021F4FC01E659FD4F90808330910521F40B
S11306E0FC01E659FD4F80800196843091050CF39E
S11306F010E06894CC24C5F86894DD24D5F8689497
S1130700EE24E5F86894FF24F5F8CEDD082F833253
S113071009F4B4C08A3209F05DC01130A9F4115053
S1130720E1E0F0E0EC0FFD1FE10FF11D80E28083BA
S113073081E044DF61E080E0C2DECE010196DCDED0
S11307406894FF24F5F8E1CF1230A9F41150E1E0E8
S1130750F0E0EC0FFD1FE10FF11D80E2808381E0EA
S11307602DDF61E080E0ABDECE010196C5DE68944A
S1130770EE24E5F8CACF1330A9F41150E1E0F0E01B
S1130780EC0FFD1FE10FF11D80E2808381E016DF95
S113079061E080E094DECE010196AEDE6894DD2453
S11307A0D5F8B3CF143009F0B0CF1150E1E0F0E048
S11307B0EC0FFD1FE10FF11D80E2808381E0FEDE7E
S11307C061E080E07CDECE01019696DE6894CC2464
S11307D0C5F89BCF111112C0E1E0F0E0EC0FFD1F52
S11307E0E10FF11D80831F5F81E0E8DE61E080E0BE
S11307F066DECE01019680DEF02E87CF113091F4B3
S1130800E1E0F0E0EC0FFD1FE10FF11D80831F5FBD
S113081081E0D4DE61E080E052DECE0101966CDE40
S1130820E02E73CF123091F4E1E0F0E0EC0FFD1F05
S1130830E10FF11D80831F5F81E0C0DE61E080E095
S11308403EDECE01019658DED02E5FCF133091F4F8
S1130850E1E0F0E0EC0FFD1FE10FF11D80831F5F6D
S113086081E0ACDE61E080E02ADECE01019644DE68
S1130870C02E4BCF143009F048CF0AC0FB100AC079
S1130880EA100AC0D9100AC0C81451F080E009C0A7
S113089080E007C080E005C080E003C080E001C0C4
S11308A081E00F900F900F900F900F90DF91CF91F8
S11308B01F910F91FF90EF90DF90CF90BF90AF907A
S11308C09F908F90089584B1876084B98CB58065BA
S11308D08CBD8CB581608CBDE1E0F1E080818F7EC0
S11308E080838CE017DEF3DD87E092E005DEAADC8E
S11308F080917302813019F138F0823009F440C0DC
S1130900833009F46EC0F4CF8091000184FF0CC0E1
S113091081E054DE61E080E0D2DD84E192E0ECDD50
S113092081E080937302E4CF81E048DE61E080E0FF
S1130930C6DD84E292E0E0DD10927302D9CF81E05B
S11309403DDE61E080E0BBDD8EE292E0D5DDF8942F
S1130950E4E6F0E08081877F808310928500109226
S113096084001092800085E080938100EFE6F0E03F
S1130970808181608083789482E080937302B8CF11
S113098080917002811108C081E018DE61E080E08E
S113099096DD8AE392E0B0DD63DE813089F4EFE630
S11309A0F0E080818E7F8083109272021092710237
S11309B01092700283E1F7DD83E08093730298CF95
S11309C081E08093700284E1EEDD82E08093730223
S11309D081E0F4DD61E080E072DD88E492E08CDDAA
S11309E087CF81E0EBDD61E080E069DD88E592E0BE
S11309F083DD5ADC813419F41092730279CF83E0D9
S1130A008093730275CFEE0FFF1F881F8BBF079073
S10D0A10F691E02D1994F894FFCF3D
S1130A1A20202020002000416C61726D20737973BC
S1130A2A74656D004D6F74696F6E206465746563D7
S1130A3A746564004E6F206D6F74696F6E0054693B
S1130A4A6D657220737461727400476976652070EB
S1130A5A617373776F72640057726F6E6720706187
S1130A6A7373776F72642100416C61726D206465DF
S1130A7A61637469766174656400313233340000E9
S9030000FC
