S014000050726F6A6563745F6D6567612E7372656340
S1130000E9C0000006C1000004C1000002C10000F4
S113001000C10000FEC00000FCC00000FAC00000E7
S1130020F8C00000F6C00000F4C00000F2C00000F8
S1130030F0C00000EEC00000ECC00000EAC0000008
S1130040E8C00000E6C00000E4C00000E2C0000018
S1130050C3C20000DEC00000DCC00000DAC0000043
S1130060D8C00000D6C00000D4C00000D2C0000038
S1130070D0C00000CEC00000CCC00000CAC0000048
S1130080C8C00000C6C00000C4C00000C2C0000058
S1130090C0C00000BEC00000BCC00000BAC0000068
S11300A0B8C00000B6C00000B4C00000B2C0000078
S11300B0B0C00000AEC00000ACC00000AAC0000088
S11300C0A8C00000A6C00000A4C00000A2C0000098
S11300D0A0C000009EC000009CC000009AC00000A8
S11300E098C000007B018301830183017D018301AA
S11300F07F018101830183018301830183018301E2
S113010083018301830183018301830183018301CB
S113011083018301830183018301830183018301BB
S113012083018301830183018301830183018301AB
S1130130830183018301830183018301830183019B
S1130140830183018301830183018301830183018B
S1130150830183018301830183018301830183017B
S11301608301830173018301830183017501830189
S11301707701790183018301830183018301830171
S1130180830183018301830183018301830183014B
S1130190830183018301830183018301830183013B
S11301A0830183016B018301830183016D01830159
S11301B06F01710183018301830183018301830141
S11301C08301830165018301830183018501830127
S11301D06701690111241FBECFEFD1E2DEBFCDBF9D
S11301E000E00CBF12E0A0E0B2E0EAE9F9E000E0D0
S11301F00BBF02C007900D92AA35B107D9F722E0D0
S1130200AAE5B2E001C01D92AD35B207E1F73FD3D4
S1130210C2C3F6CE20E09FEE10C090930801E9EF30
S1130220F0E03197F1F700C00000809106018F7073
S11302308F3029F4990F9F5F2F5F243070F3907FE4
S1130240890F08958FE080930801809106018F70D3
S11302508F30C1F789EF90E00197F1F700C00000FB
S11302608FE080930801809106018F708F3051F7E1
S113027008958FE080930801809106018F708F307C
S1130280C1F389EF90E00197F1F700C000008FE01F
S113029080930801809106018F708F3051F3089587
S11302A0D1DF89EF90E00197F1F700C00000E1DFB2
S11302B0B1DF90E0FC01E757F109E837F10518F5E3
S11302C08827EE58FF4F8F4F5EC38AE2089584E378
S11302D0089581E3089580E3089588E3089585E30C
S11302E0089582E3089583E2089589E3089586E3F7
S11302F0089583E3089584E4089583E4089582E4EB
S1130300089581E408958AE7089587E3089585B1FF
S1130310806285B9000085B18F7D85B90895CF933A
S1130320C82F662331F0E2E0F1E0808180648083AD
S113033005C0E2E0F1E080818F7B808385B18F7E10
S113034085B98DB180628DB983B3806283BB8DB171
S113035088608DB9E1E0F1E0808188608083E2E02B
S1130360F1E08081877F80838EB1877F8EB984B3EB
S11303708F7D84BB8EB18F7D8EB9CC231CF480819C
S113038088608083C6FF03C08EB188608EB9C5FFC4
S113039003C084B3806284BBC4FF03C08EB1806297
S11303A08EB9B5DFE2E0F1E08081877F80838EB192
S11303B0877F8EB984B38F7D84BB8EB18F7D8EB9D8
S11303C0C3FF03C0808188608083C2FF03C08EB1F5
S11303D088608EB9C1FF03C084B3806284BBC0FF50
S11303E003C08EB180628EB992DF8EB180628EB905
S11303F084B3806284BB8EB188608EB9E2E0F1E0A0
S1130400808188608083CF910895882331F0E2E071
S1130410F1E080818064808305C0E2E0F1E08081C6
S11304208F7B808385B1806185B98DB18F7D8DB9D6
S113043083B38F7D83BB8DB1877F8DB9E1E0F1E01C
S11304408081877F808385B1806285B9000065994A
S113045002C080E001C080E1959980626399806464
S11304609091000193FD806895B19F7D95B900003E
S113047095B1906295B90000659981609599826003
S1130480639984609091000193FD886095B19F7D8C
S113049095B9089580E0B9DF8823E4F300C000C073
S11304A080E0B3CF0895CF93C82FF4DF60E08C2FA2
S11304B036DFCF910895611103C08058F4CF0895B9
S11304C08054F1CF089581E0EECF0895CF93C82FE3
S11304D0E1DFCA3041F4803410F480E401C080E0EC
S11304E08058E1DF03C061E08C2F19DFCF910895BC
S11304F0CF93DF93FC0102C0E9DFFE01EF012196F7
S113050080818111F9CFDF91CF910895CF93C82FC6
S1130510E1E0F1E080818064808384B1806184B90A
S113052084B1806284B98DB180628DB983B38062F5
S113053083BB8DB188608DB98081886080838FE9A9
S11305409FE00197F1F700C0000084B3806284BB90
S11305508EB180628EB9DBDE81EE94E00197F1F713
S113056000C00000D4DE95E19A95F1F70000CFDEDB
S113057085E18A95F1F700008EB18F7D8EB9C7DED3
S113058095E19A95F1F7000088E28DDF88E08BDF32
S11305909ADF86E088DF8C2F86DFCF91089595B1AE
S11305A09E7F95B98EBD0DB407FEFDCF85B18160E8
S11305B085B90895CF93DF93682F80E07CDFC0E096
S11305C0D0E004C080E092E093DF2196C031D105F1
S11305D0CCF3DF91CF9108951F920F920FB60F9233
S11305E011240BB60F922F933F934F935F936F9306
S11305F07F938F939F93AF93BF93EF93FF938091D8
S11306005A0290915B02019690935B0280935A0286
S113061080915A0290915B02059759F484E1BFDFFF
S113062010925B0210925A02EFE6F0E080818E7F16
S11306308083FF91EF91BF91AF919F918F917F91B3
S11306406F915F914F913F912F910F900BBE0F903F
S11306500FBE0F901F9018958F929F92AF92BF92EA
S1130660CF92DF92EF92FF920F931F93CF93DF937A
S113067000D01F921F92CDB7DEB71A821982FE01F5
S1130680339683E0DF011D928A95E9F780E090E0DC
S11306906894882485F86894992495F86894AA2421
S11306A0A5F86894BB24B5F81CC0009721F4FC019C
S11306B0EB5AFD4FB0808130910521F4FC01EB5AD7
S11306C0FD4FA0808230910521F4FC01EB5AFD4FCF
S11306D090808330910521F4FC01EB5AFD4F80801A
S11306E00196843091050CF310E06894EE24E5F84B
S11306F06894CC24C5F86894DD24D5F86894FF2464
S1130700F5F8CEDD082F833209F49EC08A3209F051
S113071053C01130A1F41150E1E0F0E0EC0FFD1FE3
S1130720E10FF11D80E2808381E044DF61E080E03D
S1130730C2DECE010196DCDE6894FF24F5F81230A7
S1130740A1F41150E1E0F0E0EC0FFD1FE10FF11D09
S113075080E2808381E02EDF61E080E0ACDECE01C8
S11307600196C6DE6894DD24D5F81330A1F4115047
S1130770E1E0F0E0EC0FFD1FE10FF11D80E280836A
S113078081E018DF61E080E096DECE010196B0DE04
S11307906894CC24C5F81111B4CF80E28C8381E035
S11307A009DF61E080E087DECE010196A1DE13E07F
S11307B06894EE24E5F8A5CF111111C01F5FE1E0A4
S11307C0F0E0EC0FFD1FE10FF11D808381E0F2DE0C
S11307D061E080E070DECE0101968ADEF02E1130F9
S11307E089F41F5FE1E0F0E0EC0FFD1FE10FF11D64
S11307F0008381E0DFDE61E080E05DDECE01019612
S113080077DED02E123089F41F5FE1E0F0E0EC0FC8
S1130810FD1FE10FF11D008381E0CCDE61E080E08B
S11308204ADECE01019664DEC02E133009F069CF92
S1130830098381E0BFDE61E080E03DDECE01019608
S113084057DEE02E10E05DCFFB1008C0DA1008C0C0
S1130850C91008C0E81441F080E007C080E005C07A
S113086080E003C080E001C081E00F900F900F9002
S11308700F900F90DF91CF911F910F91FF90EF9008
S1130880DF90CF90BF90AF909F908F90089584B1E8
S1130890876084B98CB580658CBD8CB581608CBD56
S11308A0E1E0F1E080818F7E80838CE02FDE0BDE3F
S11308B082E092E01DDE80915C02813019F138F013
S11308C0823009F440C0833009F454C0F4CF8091DD
S11308D0000184FF0CC081E06DDE61E080E0EBDDAF
S11308E08FE092E005DE81E080935C02E4CF81E05A
S11308F061DE61E080E0DFDD8FE192E0F9DD1092FE
S11309005C02D9CF81E056DE61E080E0D4DD89E28B
S113091092E0EEDDF894E4E6F0E08081877F808366
S113092010928500109284001092800085E08093DC
S11309308100EFE6F0E0808181608083789482E03A
S113094080935C02B8CF81E035DE61E080E0B3DD06
S113095085E392E0CDDD80DE813031F483E11FDE7A
S113096083E080935C02A7CF84E119DE82E0809368
S11309705C02A1CF81E01EDE61E080E09CDD83E4C7
S113098092E0B6DD98CFEE0FFF1F881F8BBF079054
S10D0990F691E02D1994F894FFCFBE
S113099A2000416C61726D2073797374656D004D2A
S11309AA6F74696F6E206465746563746564004E60
S11309BA6F206D6F74696F6E0054696D6572207370
S11309CA7461727400476976652070617373776F16
S11309DA726400416C61726D206465616374697646
S10D09EA6174656400313233340097
S9030000FC
