S014000050726F6A6563745F6D6567612E7372656340
S113000071C000008EC000008CC000008AC00000D7
S113001088C0000086C0000084C0000082C00000C8
S113002080C000007EC000007CC000007AC00000D8
S113003078C0000076C0000074C0000072C00000E8
S113004070C000006EC000006CC000006AC00000F8
S113005068C0000066C0000064C0000062C0000008
S113006060C000005EC000005CC000005AC0000018
S113007058C0000056C0000054C0000052C0000028
S113008050C000004EC000004CC000004AC0000038
S113009048C0000046C0000044C0000042C0000048
S11300A040C000003EC000003CC000003AC0000058
S11300B038C0000036C0000034C0000032C0000068
S11300C030C000002EC000002CC000002AC0000078
S11300D028C0000026C0000024C0000022C0000088
S11300E020C0000011241FBECFEFD1E2DEBFCDBF80
S11300F000E00CBF12E0A0E0B2E0E0EEF1E000E0CE
S11301000BBF02C007900D92AC31B107D9F722E0C2
S1130110ACE1B2E001C01D92A232B207E1F71FD0F8
S11301205DC06ECF9093C5008093C400E1ECF0E015
S1130130808188618083E2ECF0E080818E6080833E
S113014008959091C00095FFFCCF8093C600089558
S11301508091C00085FFFCCF8091C600089584B1D2
S1130160876084B98CB580658CBD8CB581608CBD8D
S113017087E690E0D7DFECE1F2E08EE092E0938353
S1130180828380E092E09183808385B18E7F85B9FC
S113019084E18EBD0DB407FEFDCF85B1816085B9C4
S11301A02FEF83E294EF215080409040E1F700C0AC
S11301B0000085B18E7F85B983E18EBD0DB407FE45
S11301C0FDCF85B1816085B92FEF83E294EF215093
S11301D080409040E1F700C00000D7CFF894FFCFF3
S11301E000000001000000000000A8000000000062
S10F01F0000200000000A100000000005C
S9030000FC
