S013000050726F6A6563745F756E6F2E7372656389
S11300000C9434000C9451000C9451000C94510045
S11300100C9451000C9451000C9451000C94510018
S11300200C9451000C9451000C9451000C94510008
S11300300C9451000C9451000C9451000C945100F8
S11300400C9451000C9481000C9451000C945100B8
S11300500C9451000C9451000C9451000C945100D8
S11300600C9451000C94510011241FBECFEFD8E022
S1130070DEBFCDBF11E0A0E0B1E0ECEEF1E002C0E4
S113008005900D92AE32B107D9F721E0AEE2B1E0AE
S113009001C01D92A533B207E1F70E94AA000C9497
S11300A0F4000C9400009093C5008093C400E1EC2C
S11300B0F0E0808188618083E2ECF0E080818E60F2
S11300C0808308959091C00095FFFCCF8093C60073
S11300D008958091C00085FFFCCF8091C6000895EB
S11300E0833131F0843141F48BB180688BB9089548
S11300F08BB18F778BB908958CE191E00E94C40095
S113010008951F920F920FB60F9211242F933F93CD
S11301104F935F936F937F938F939F93AF93BF930B
S1130120EF93FF938EB580932E0180912E010E9450
S11301307000FF91EF91BF91AF919F918F917F914B
S11301406F915F914F913F912F910F900FBE0F9040
S11301501F90189580E184B980E48CBD8CB58068CB
S11301608CBD8AB180688AB987E690E00E9453000A
S1130170EFE2F1E08EE091E09383828380E091E00E
S1130180918380837894FFCF0F931F93CF93DF9352
S1130190E0913101F0913201238121FF1BC08C01D8
S11301A0D0E0C0E0F80181918F016091310170913C
S11301B03201DB011896ED91FC911997882331F0F7
S11301C00995892B79F3DFEFCFEFECCF8AE009951E
S11301D0892B19F08FEF9FEF02C08D2F9C2FDF9199
S10F01E0CF911F910F910895F894FFCF68
S11301EC0000000100000000000069000000000095
S11301FC000200000000620000000000696E636FE2
S111020C727265637420636F6D6D616E6400C1
S9030000FC
