S013000050726F6A6563745F756E6F2E7372656389
S11300000C9434000C9446000C9446000C94460066
S11300100C9446000C9446000C9446000C94460044
S11300200C9446000C9446000C9446000C94480032
S11300300C9446000C9446000C9446000C94460024
S11300400C9446000C9499000C9446000C944600C1
S11300500C9446000C9446000C9446000C94460004
S11300600C9446000C94460011241FBECFEFD8E038
S1130070DEBFCDBF21E0A0E0B1E001C01D92A230FF
S1130080B207E1F70E94C2000C94DD000C9400005A
S11300901F920F920FB60F921124109285001092A6
S11300A084000F900FBE0F901F90189594B192602A
S11300B094B97894A1E8B0E01C92E0E8F0E01082F2
S11300C010928500109284009081906490839081B6
S11300D0916090839C9190619C93EFE6F0E0908115
S11300E092609083813019F428E839E002C020E05E
S11300F030E03093890020938800813019F484EF34
S113010091E002C080E090E090938B0080938A009D
S11301100895833141F0843159F481E080930001E2
S11301200E94560008951092000180E00E9456003B
S113013008951F920F920FB60F9211242F933F939D
S11301404F935F936F937F938F939F93AF93BF93DB
S1130150EF93FF938EB580930101809101010E947A
S11301608900FF91EF91BF91AF919F918F917F9102
S11301706F915F914F913F912F910F900FBE0F9010
S11301801F90189580E184B980E48CBD8CB580689B
S11301908CBD8AB180688AB9789405C0E1E8F0E042
S11301A0808181608083809100018130B9F3EFE622
S11101B0F0E080818D7F8083F6CFF894FFCF3E
S9030000FC
