S013000050726F6A6563745F756E6F2E7372656389
S11300000C9434000C9446000C9446000C94460066
S11300100C9446000C9446000C9446000C94460044
S11300200C9446000C9446000C9446000C94480032
S11300300C9446000C9446000C9446000C94460024
S11300400C9446000C949B000C9446000C944600BF
S11300500C9446000C9446000C9446000C94460004
S11300600C9446000C94460011241FBECFEFD8E038
S1130070DEBFCDBF21E0A0E0B1E001C01D92A230FF
S1130080B207E1F70E94C4000C94D0000C94000065
S11300901F920F920FB60F921124109285001092A6
S11300A084000F900FBE0F901F90189584B182604A
S11300B084B97894A1E8B0E01C92E0E8F0E0108202
S11300C010928500109284008081806480838081F6
S11300D0816080838C9180618C93EFE6F0E0808175
S11300E08260808388E899E09093890080938800F7
S11300F084EF91E090938B0080938A0005C0E1E83F
S1130100F0E0808181608083809100018130B9F3C7
S1130110EFE6F0E080818D7F80830895833141F0A4
S1130120843141F481E0809300010E9456000895D7
S11301301092000108951F920F920FB60F9211248E
S11301402F933F934F935F936F937F938F939F93DB
S1130150AF93BF93EF93FF938EB58093010180918A
S113016001010E948E00FF91EF91BF91AF919F9189
S11301708F917F916F915F914F913F912F910F904C
S11301800FBE0F901F90189580E184B980E48CBD58
S11301908CB580688CBD8AB180688AB97894FFCFA9
S10701A0F894FFCFFD
S9030000FC
